:100000000C943A010C9462010C9462010C9462010C
:100010000C9462010C9462010C9462010C946201D4
:100020000C9462010C9462010C941C240C948B249B
:100030000C9462010C9462010C9462010C946201B4
:100040000C9462010C9462010C9462010C946201A4
:100050000C9462010C9462010C9462010C941527BB
:100060000C9462010C94E3260C94BD260C9462015E
:100070000C9462010C9462010C9462010C94620174
:100080000C9462010C9462010C9462010C94620164
:100090000C9462010C9462010C9462010C94620154
:1000A0000C9462010C9462010C946201214023249F
:1000B000255E262A28295F2B7B7D7C7E3A227E3C8A
:1000C0003E3F2D3D5B5D5C203B27602C2E2F2F2A71
:1000D0002D2B0D00000000000000002A2B2800003E
:1000E0000000000000000000000000000000000010
:1000F0000000002C9EB4A0A1A2A434A6A7A5AE36F1
:100100002D3738271E1F20212223242526B333B65E
:100110002EB7B89F8485868788898A8B8C8D8E8F31
:10012000909192939495969798999A9B9C9D2F3134
:1001300030A3AD350405060708090A0B0C0D0E0F98
:10014000101112131415161718191A1B1C1DAFB114
:10015000B0B5000000000200090F00000304010018
:100160000C00000000000000000000000000000083
:100170000000080B00020202000009040000010256
:1001800002000005240010010524010101042402DD
:10019000060524060001070581031000400904013B
:1001A00000020A0000000705020240000007058364
:1001B000024000000403090412010002EF020140A2
:1001C0004123368000010102030141726475696EAA
:1001D0006F204C4C430041726475696E6F204C6512
:1001E0006F6E6172646F0000000000250028002B14
:1001F000002E00310000000000240027002A002DFE
:100200000030000404040404030405020202020492
:1002100003020202020606060606060404020202A1
:1002200004040408020110408040102040804080F7
:10023000080204018040201002011080102040407C
:100240002005010906A1018502050719E029E71526
:1002500000250175019508810295017508810395B6
:10026000067508150025730507190029738100C05C
:100270009227412D11241FBECFEFDAE0DEBFCDBFA4
:1002800028E0A2EDB3E001C01D92A931B207E1F769
:1002900013E0A0E0B1E0EEE4F0E602C005900D92BC
:1002A000A23DB107D9F711E0C9E3D1E004C021971D
:1002B000FE010E94E62DC833D107C9F70E941D290F
:1002C0000C941A300C940000CF93DF93FC018181D1
:1002D00090913D07482F490F5527551F483051052C
:1002E0009CF5A281B381109709F529E337E03383A8
:1002F0002283208120933B0780933C0780913E0717
:10030000820F808320913F07A22FB09140078A2F50
:10031000821B8917E8F481813D91C82FD0E0C05F2E
:10032000DE4F38838F5F8183F2CFD90118962D91EC
:100330003C91199721153105C1F729E337E019964A
:100340003C932E931897D5CF80E0DF91CF910895FD
:1003500081E0FBCFE8EDE80FED3308F097C0F0E067
:10036000EC54FE4F0C94E62D3F020D020F021102D9
:100370000B0246024602460246024602430246027B
:100380004602460246024602460245021302150292
:10039000170219021B021D021F022102230225025D
:1003A00027022902F501F30146022B022D022F023A
:1003B000310233023502370239023B023D02F101BC
:1003C00046024602460246023F02F701F901FB01DE
:1003D000FD01FF01010203020502070209024602B4
:1003E000410282E0089584E0089585E0089581E364
:1003F000089582E3089583E3089584E3089585E3EF
:10040000089586E3089587E3089588E3089589E3CE
:10041000089580E3089580E2089581EB089582EBCA
:10042000089583EB089582EC089583EC089584EC9D
:10043000089585EC089586EC089587EC089588EC7E
:10044000089589EC08958AEC08958BEC08958CEC5E
:1004500008958DEC089581ED089582ED089583ED62
:10046000089584ED089585ED089586ED089587ED4E
:10047000089588ED089589ED08958AED089580EB3B
:1004800008958CEE08958CE5089581E0089590E03C
:10049000FC01EE5DFD4F24918D5F9D4FFC01849129
:1004A000882399F090E0880F991FFC01EB50FE4FD4
:1004B000A591B491FC01E951FE4F859194918FB7BC
:1004C000F894EC91E22BEC938FBF0895FC0180919E
:1004D000FF05882311F13FB7F89482E08093E9008B
:1004E0002091F200822F90E01816190614F481E092
:1004F00090E0882339F0289844E64093FE05409127
:10050000F1004083222339F02091F200211103C031
:100510002BE62093E8003FBF08958FEF9FEF0895EB
:1005200008954091F3055091F4052091F105309123
:10053000F20542175307B4F49091E8009570E1F387
:100540009091E80092FD19C08093F1008091F3052D
:100550009091F40501968F739927892B19F48EEFEA
:100560008093E8008091F3059091F40501969093B3
:10057000F4058093F30581E0089580E00895DF920B
:10058000EF92FF920F931F93CF93DF93D82E8A01A0
:10059000EB017B01E40EF51ECE15DF0559F0D7FE09
:1005A00012C0FE0184910E94910221968111F4CF24
:1005B0000FEF1FEFC801DF91CF911F910F91FF90B7
:1005C000EF90DF9008958881EECF2FB7F894877071
:1005D0008093E9009091E800892F807295FF04C014
:1005E0009091F20080E4891B2FBF0895615030F094
:1005F0002091F100FC0120830196F8CF289884E631
:100600008093FE050895AF92BF92CF92DF92EF9252
:10061000FF920F931F93CF93DF936C017B018B01AC
:10062000040F151FEB015E01AE18BF08C017D107FC
:1006300059F06991D601ED91FC910190F081E02D86
:10064000C6010995892B79F7C501DF91CF911F91DB
:100650000F91FF90EF90DF90CF90BF90AF900895F3
:10066000FC01448155816081718181E096E00C94A8
:1006700003038091E90581110DC082E08093E505B7
:1006800084E08093E6051092E8051092E70581E08A
:100690008093E90585EE95E008950F931F93CF931E
:1006A000DF931F92CDB7DEB782E0898342E450E04A
:1006B00062E771E080E80E94BF020E943903DC011A
:1006C00012960D911C910115110589F0D801ED913B
:1006D000FC910280F381E02DBE016F5F7F4FC80166
:1006E000099597FD04C0F80100851185ECCF89813B
:1006F0000F90DF91CF911F910F910895FC01538DC1
:10070000448D252F30E0842F90E0821B930B5417EB
:1007100010F0CF96089501970895FC01918D828D78
:10072000981761F0A28DAE0FBF2FB11D5D968C9111
:10073000928D9F5F9F73928F90E008958FEF9FEF50
:100740000895FC01918D828D981731F0828DE80F0C
:10075000F11D858D90E008958FEF9FEF0895FC01C6
:10076000918D228D892F90E0805C9F4F821B910993
:100770008F739927089581E096E00E94AF0321E0EE
:10078000892B09F420E0822F089580E090E0892BE6
:1007900029F00E94BB0381110C9400000895FC0114
:1007A000A48DA80FB92FB11DA35ABF4F2C91848DD2
:1007B00090E001968F739927848FA689B7892C932F
:1007C000A089B1898C9182748C93938D848D9813B8
:1007D00006C00288F389E02D80818F7D8083089593
:1007E000EF92FF920F931F93CF93DF93EC0181E081
:1007F000888F9B8D8C8D981319C0E889F989808129
:1008000085FF14C09FB7F894EE89FF896083E8895B
:10081000F9898081827480839FBF81E090E0DF91BD
:10082000CF911F910F91FF90EF900895F62E0B8DB1
:1008300010E00F5F1F4F0F731127E02E8C8D8E116C
:100840000CC00FB607FCFACFE889F989808185FFD3
:10085000F5CFCE010E94CF03F1CFEB8DEC0FFD2F32
:10086000F11DE35AFF4FF0829FB7F8940B8FEA898E
:10087000FB8980818062CFCFCF93DF93EC01888D9D
:100880008823B9F0AA89BB89E889F9898C9185FD0B
:1008900003C0808186FD0DC00FB607FCF7CF8C9199
:1008A00085FFF2CF808185FFEDCFCE010E94CF037F
:1008B000E9CFDF91CF910895CF93DF931F92CDB70A
:1008C000DEB76983DC01ED91FC910280F381E02DBC
:1008D00041E050E0BE016F5F7F4F09950F90DF91BF
:1008E000CF91089583E08093E9008091F2008823FE
:1008F00019F08AE38093E800089583E00E94E502FE
:1009000090E00895CF93DF931F92CDB7DEB7FC013F
:100910008485958597FD08C02FEF3FEF35872487A5
:100920000F90DF91CF910895CE0101960E9466024B
:10093000019719F4898190E0F3CF8FEF9FEFF0CF0B
:100940000F931F93CF93DF931F92CDB7DEB78C0128
:10095000FC018485958597FF0BC0CE0101960E940E
:100960006602019771F4898190E0F8019587848788
:10097000F801848595850F90DF91CF911F910F919C
:1009800008958FEF9FEFF1CFFC018485958597FD4A
:100990000BC09FB7F89482E08093E9008091F20049
:1009A0009FBF90E0019608959FB7F89482E08093EE
:1009B000E9008091F2009FBF90E00895282F30E079
:1009C000F901ED5AFE4F9491F901EE5DFD4F8491CE
:1009D0002D5F3D4FF9012491222309F430C0992362
:1009E000E9F091509F30D0F4E92FF0E0E650FB4F52
:1009F0000C94E62D28052C050905200524050E0577
:100A00000E050E052F05350539053D0543050E0577
:100A10004705909180009F7790938000E22FF0E04F
:100A2000EE0FFF1FE951FE4FA591B4919FB7F894C7
:100A3000EC91611132C080958E238C939FBF0895F5
:100A4000909180009F7DE8CF90918000977FE4CFC8
:100A500094B59F7794BDE2CF94B59F7DFBCF9091E5
:100A600090009F7790939000D9CF909190009F7DB8
:100A7000F9CF90919000977FF5CF9091C0009F772C
:100A80009093C000CBCF9091C0009F7DF9CF909103
:100A9000C200977F9093C200C1CF8E2BCECF3FB7BD
:100AA000F8948091E1059091E205A091E305B09161
:100AB000E40526B5A89B05C02F3F19F00196A11D9E
:100AC000B11D3FBFBA2FA92F982F8827BC01CD0198
:100AD000620F711D811D911D42E0660F771F881FF7
:100AE000991F4A95D1F708958F929F92AF92BF9226
:100AF000CF92DF92EF92FF926B017C010E944F0533
:100B00004B015C01C114D104E104F104B9F00E946D
:100B10004F05681979098A099B09683E7340810568
:100B2000910580F321E0C21AD108E108F10888EEAE
:100B3000880E83E0981EA11CB11CE4CFFF90EF90BB
:100B4000DF90CF90BF90AF909F908F9008957F924D
:100B50008F929F92AF92BF92CF92DF92EF92FF92CD
:100B60000F931F93CF93DF93C82E8B017A0180914F
:100B7000FF05811110C08FEF9FEFDF91CF911F9183
:100B80000F91FF90EF90DF90CF90BF90AF909F902C
:100B90008F907F9008958091F70580FF05C0809128
:100BA000E00082608093E000CE2DDF2DD12C8AEF13
:100BB000B82E8C2D8770982E8C2D8072882E8C2DBF
:100BC0008074782E9AE3A92E209719F4DD2009F479
:100BD00052C08C2D0E94E50281110AC0BA94BB203C
:100BE00051F261E070E080E090E00E947405ECCF8B
:100BF0008C171D0611F00CF08C2F9FB7F894909273
:100C0000E9002091E80025FD02C09FBFDDCF282F1D
:100C100030E0C21BD30B882029F08150A0F0109245
:100C2000F100FBCFF801C7FC0AC0815050F04191A0
:100C30004093F100FACF44914093F10031968150F6
:100C4000D0F7020F131FDD2021F0A092E800D12C75
:100C5000DCCF8091E80085FD07C0A092E800DD248C
:100C6000D394209791F2F3CF209779F6772069F209
:100C7000A092E800CACF5D9884E68093F605C7018C
:100C80007CCFEF92FF921F93CF93DF931F92CDB74C
:100C9000DEB77C0180914A0781112AC011E01093D0
:100CA0003D0710933E0783E497E0909340078093BD
:100CB0003F0710924207109241078DE591E0909313
:100CC0003A07809339071092450710924407109213
:100CD000470710924607109348071093490781EC85
:100CE000809343070E9439030E94640110934A07CE
:100CF00082E0898341E050E0BE016F5F7F4F8091C9
:100D00003C070E94A70597FD08C080913C0748E07A
:100D100050E0B70180640E94A7050F90DF91CF914A
:100D20001F91FF90EF900895CF93DF93EC01809196
:100D30000F01882331F083E00E94A70518161906D9
:100D400034F081E090E09B838A8380E090E0DF9143
:100D5000CF9108952FB7F8946091DD057091DE056D
:100D60008091DF059091E0052FBF08950F931F93A9
:100D70000E94AA066093090670930A0680930B06E8
:100D800090930C0681E096E00E948D0397FF1DC0B2
:100D90000E94AA060091090610910A0620910B06EE
:100DA00030910C06601B710B820B930B00910506B2
:100DB000109106062091070630910806601771070A
:100DC00082079307F8F28FEF9FEF1F910F9108951D
:100DD000DC01FB0112962C911297848195812817D2
:100DE000190641F491818081813A31F49D7F81E03F
:100DF000913009F080E008958132E1F79B3029F4C9
:100E000082811F968C9381E008959A3099F78281B0
:100E100050968C93F8CFDC01FB0188E4808389E451
:100E2000818384E482831D969C911D979F709F5BB4
:100E300093831D968D919C9124E0969587952A9594
:100E4000E1F78F708F5B848385E00895EF92FF92C6
:100E50000F931F93CF93DF93FB012081213871F50E
:100E60002381223259F5DC0112964C91248135817F
:100E70004217130619F5EC010B851C85F12CE12CAA
:100E80000115110589F0F801448155816281738152
:100E900080E80E94BF028F3F980749F0E80EF91ED4
:100EA000D8010D911C91ECCF81E08F87C701DF91B4
:100EB000CF911F910F91FF90EF90089590E080E007
:100EC000F6CFCF93DF93CDB7DEB769970FB6F8941F
:100ED000DEBF0FBECDBFFC01DB018C918F5F8C9319
:100EE0009E012D5F3F4F8DE0D9011D928A95E9F754
:100EF00029E0298384E08A8391E09D8383E08E83C7
:100F00002A8721E22B879C879D879F8722E2288B57
:100F100027E02B8B25E02C8B8E8B20E430E0388F64
:100F20002F8B998F82818B8395858685998B8A8B70
:100F3000838180688D8B49E150E0BE016F5F7F4FF8
:100F400080E00E94BF0269960FB6F894DEBF0FBE24
:100F5000CDBFDF91CF910895CF92DF92EF92FF92B4
:100F60000F931F93CF93DF936C01EB017B01E40E92
:100F7000F51E10E000E0CE15DF0581F069916D30BF
:100F8000D1F3D601ED91FC910190F081E02DC601E5
:100F90000995892B19F00F5F1F4FEDCFC801DF9125
:100FA000CF911F910F91FF90EF90DF90CF90089518
:100FB000DC016838A0F06858FD0186E0662321F066
:100FC0009681961301C01682815031968111F6CF19
:100FD000CD0104960E94410681E090E00895E62F3D
:100FE000F0E067FF12C0E058F10981E090E001C035
:100FF000880FEA95EAF7809514969C9114978923B7
:1010000014968C93149760E0D7CFED52FF4F649104
:10101000662359F067FFD0CF14968C9114978D7F7B
:1010200014968C9314976F77C7CF90E080E0089563
:10103000DC01683888F1685816968C9116978617E7
:1010400021F117968C9117978617F9F018968C91C5
:1010500018978617D1F019968C9119978617A9F0D1
:101060001A968C911A97861781F01B968C911B9774
:10107000861759F0FD01369690E080E0219121110C
:1010800039C08A0F9B1FFC016683CD0104960E9424
:10109000410681E090E00895E62FF0E067FF11C07F
:1010A000E058F10921E030E001C0220FEA95EAF7AB
:1010B00014968C911497822B14968C93149760E05D
:1010C000BBCFED52FF4F6491611109C081E090E008
:1010D00013969C938E93129790E080E0089567FF9B
:1010E000ABCF14968C911497826014968C931497BE
:1010F0006F77A2CF01968630910509F0BFCFE6CF7A
:10110000EF92FF921F93CF93DF93EC01162F0E9473
:1011100018087C01612FCE010E94D807C7019927CA
:10112000DF91CF911F91FF90EF9008950F931F9340
:10113000CF93DF93FC018B01EA0180819181892BA0
:1011400031F19281992349F128813981232BF9F0DA
:10115000D8012D913C91D9014C918381682F691B55
:10116000770B80819181860F971FDC014C938281E0
:101170008150828388819981019799838883D801DE
:101180008D919C91119701968D939C93DACF80E07D
:10119000DF91CF911F910F9108958381828381E028
:1011A000F7CFCF93DF9362722CEF240F2A3180F4B4
:1011B000DC011A968C9181FD07C0662339F08DE31E
:1011C000840FDF91CF9108956623C9F38DE5F8CFA1
:1011D000C42F22EE240F2A30A8F4662371F0DC011C
:1011E000ED91FC910284F385E02D09952C2F2E5171
:1011F000330BF901E80FF91F23C083E1473261F493
:1012000080E3DFCF27EA240F293040F4DC011A966F
:101210008C9180FF31C088ED8C0FD3CF23ED240F4C
:101220002C30A0F4CD52DD0BDC01ED91FC91662356
:1012300049F00484F585E02D09958C0F9D1FFC0174
:101240008491BFCF0684F785E02DF6CF2CEA240FDA
:10125000253058F4DC01ED91FC910088F189E02DF6
:1012600009952C2F2455330BC4CF4C3289F030F420
:101270008DE0483209F4A5CF80E0A3CF423651F08B
:101280004336D1F7FC01828580FFF6CF8EE299CFFD
:1012900080E297CFDC011A968C9180FFEDCFB0CF22
:1012A0002F923F924F925F926F927F928F929F9276
:1012B000AF92BF92CF92DF92EF92FF920F931F9364
:1012C000CF93DF9300D000D01F92CDB7DEB7D80107
:1012D00012962C911297213009F484C02B019D8322
:1012E0008C83FC0162814C91641739F00190F0818C
:1012F000E02D0480F581E02D09953801B2E06B0EF8
:10130000711C8C809D80E4E08E0E911C6801C801E8
:1013100008969B838A83540173012C803D809AE058
:10132000290E311CD7014D917D01F50191915F018D
:10133000D301F401198280E02191421303C04130AE
:1013400009F081E02D91291304C0913011F021E0C2
:101350002983E215F30581F781111AC0AC81BD81A3
:10136000ED91FC9111970280F381E02DB201CD0146
:101370000995AC81BD81ED91FC910680F781E02D4E
:10138000D70111974C91D8016C918C819D81099561
:10139000B981B11111C0AC81BD81ED91FC91008486
:1013A000F185E02DD50111974C91AC81BD8112964C
:1013B0006C911297CD010995EA81FB81EE16FF062B
:1013C00009F0B0CF8C819D8102969B838A83D601E0
:1013D0008D916D01EA81FB818193FB83EA83AE15D8
:1013E000BF05A9F70F900F900F900F900F90DF910E
:1013F000CF911F910F91FF90EF90DF90CF90BF9012
:10140000AF909F908F907F906F905F904F903F90A4
:101410002F900895DF92EF92FF920F931F93CF9337
:10142000DF93EC0185E0E62EF12CFE01869FE00DB6
:10143000F11D1124908596FF24C0192F177001E02B
:1014400085E0D82E8FEF800F8F3008F001E0602FFD
:1014500070E0062FD69EF001D79EF00D1124EC0F00
:10146000FD1F80858695869586958770181701F1F2
:101470006F5F7F4F603168F38D81811302C011501F
:101480001D8385E08E9DF0018F9DF00D1124EC0FE2
:10149000FD1F108681E0818712862296D783C6833E
:1014A000DF91CF911F910F91FF90EF90DF90089502
:1014B000CE010E940A0AC6CFFC0120812EBD9B01ED
:1014C0002150310941F051810DB407FEFDCF4EB5D9
:1014D0005EBD4193F5CF61507109860F971F0DB422
:1014E00007FEFDCF2EB5FC0120830895FC0121E00D
:1014F000613499F49C01255B3F4F61E0AC014E5F84
:101500005F4F1586668717865487438735962E1753
:101510003F07B9F7FC01158208953585631729F057
:101520002F5F35962031C9F70895622F0C940A0A6F
:10153000CF93DF93FC0167FD12C0283080F4442371
:1015400019F08581873059F0EF01A1E0B0E08D8579
:10155000882349F111962596A031B105C1F780E0A5
:1015600018C085E08A9FE0018B9FD00D1124CE0F1B
:10157000DF1F442389F081E4888785818F5F85831D
:1015800025E02A9FC0012B9F900D1124E80FF91F21
:101590008085DF91CF91089581E08887F1CF277012
:1015A000687B622B0FC06623E1F26770660F660FDF
:1015B000660F4423A1F3606485818F5F8583877004
:1015C000687F682B25E02A9FC0012B9F900D112476
:1015D000E80FF91F6087862FDCCFFC0121E0611145
:1015E00002C0069608953585631739F02F5F35964A
:1015F0002031C9F790E080E00895069635E0239FFA
:10160000800D911D1124089590E080E008953F928F
:101610004F925F926F927F928F929F92AF92BF9202
:10162000CF92DF92EF92FF920F931F93CF93DF93AE
:1016300000D000D0CDB7DEB76C017A8369835C83BC
:101640004B8384E0482E360182E1680E711C93E0E2
:10165000392E5601A7E0AA0EB11C12E0552453946E
:101660004601B0E18B0E911C29813A81211531058B
:1016700009F4CDC0F60180A18230F1F0A8F58823ED
:1016800009F457C0813091F7AE014F5F5F4FBE0143
:101690006D5F7F4FC5010E949608882309F4B7C08B
:1016A000D6011596ED91FC911697808191968C93B9
:1016B0009197818192968C93F6017682658230A211
:1016C000D60192968C919297843011F493961C9245
:1016D000F60181A18250848325813681308727835A
:1016E0008287818740A205C0833051F3843009F09E
:1016F000BDCFD60192968C919297843019F18530A6
:1017000009F44BC0823009F075C0AE014F5F5F4FE6
:10171000BE016D5F7F4FC5010E949608882309F4C2
:1017200076C0F601858984A3F6019682858210A28F
:101730009BCF148385819681908787831287118739
:1017400050A2A2CFAE014F5F5F4FBE016D5F7F4FD2
:10175000C5010E949608882309F459C0D601559600
:101760008C915597833001F756968C91569781301E
:10177000D9F698969C91989757968C91992351F009
:10178000882391F2F60153A2928996A3938997A395
:1017900085A3CACF813041F6F5CFAE014F5F5F4FD1
:1017A000BE016D5F7F4FC5010E949608882379F1C5
:1017B000D60193968C919397882309F4B5CF12960E
:1017C0008D919C91009709F4AFCFDC01ED91FC91D4
:1017D0000190F081E02D7401D60195960C919597BA
:1017E00097962C91979796964C91969794966C9184
:1017F00009959ACFF60185858823F9F0813041F16A
:10180000D6011E968D919C91892B09F48DCF0F9056
:101810000F900F900F90DF91CF911F910F91FF903C
:10182000EF90DF90CF90BF90AF909F908F907F9080
:101830006F905F904F903F90089591968C91919703
:101840008250990B1F969C938E931E971D965C92C7
:1018500029813A818B819C81782F692FF6014685F9
:1018600057854115510581F001962115310539F053
:10187000415051095787468721503109EDCF7B836D
:101880006C831A821982BCCF9C838B833A83298311
:101890001586B6CF0895EF92FF92CF93DF93FC01A8
:1018A000E7018289823021F16787408B9B819370A9
:1018B0009330F1F49A8197FF1BC02E81308D32173F
:1018C00008F4208F282F30E0D901AA0FBB1FA20FE8
:1018D000B31FAE0FBF1F9F7017969C9317979C81E5
:1018E00018969C93189794E019969C938F5F828B1F
:1018F000DF91CF91FF90EF900895EF92FF920F93B9
:1019000002970E944B0C0F91FF90EF900895FC01FD
:101910008789089570E0660F771F860F971FFC0177
:1019200085859685089581E0613009F080E008950D
:1019300081E0633009F080E00895FC01868108951C
:10194000CF93DF93EC018C819D81DC01ED91FC91C3
:101950000480F581E02D6E8109951F86188A81E04B
:101960008A8B1E821B8A1C8A1D8A1E8A1F8A80E01F
:10197000DF91CF9108952E9808952E9A089570E0E2
:10198000660F771F860F971FFC015687458781E0FA
:101990000895FF920F931F93CF93DF938C01F62E40
:1019A000D42F61E08DE00E94DE048D2F0E94AA01F9
:1019B000C82F8D1309C0482F6F2DC8010E94D10870
:1019C000982F9F7D682F09F46C2F80E697E00E9486
:1019D000180860E08DE0DF91CF911F910F91FF908B
:1019E0000C94DE048EEC90E0089582EC90E0089573
:1019F00086EB90E008958CEA90E0089580E00895E9
:101A0000089580E00895089561E0FC0184810E94BA
:101A1000DE048091D60381111092D60308958EBD05
:101A200000000DB407FEFDCF8EB508958FEF0C9426
:101A30000F0D0F931F93CF93DF93EC010E94AA0623
:101A40008B010E94160D8F3F69F00E94AA06601B51
:101A5000710B6C177D07A8F380E0DF91CF911F9188
:101A60000F91089581E0F9CF8CBD9DBD0895CF936E
:101A7000DF93EC018091D603811109C081E080934E
:101A8000D6038091EE069091EF060E94340D60E03F
:101A90008C81DF91CF910C94DE04CF92DF92EF9294
:101AA000FF920F931F93CF93DF93EC01162F6901E1
:101AB0007A018E81882389F08F8198859C012F5F20
:101AC0003F4F38872F838230924018F40E94160DC2
:101AD000F3CFCE010E94040D1E82CE010E94370D6D
:101AE0008CE291E00E94190D812F80640E940F0DFD
:101AF00008E110E0D701C601002E04C0B695A795F5
:101B0000979587950A94D2F70E940F0D08501109F6
:101B1000083F8FEF180771F78FEF0E940F0D10E04D
:101B20000E94160D8A8787FF04C01F3F11F01F5FB8
:101B3000F7CFDF91CF911F910F91FF90EF90DF9042
:101B4000CF900895CF92DF92EF92FF920F93CF93B1
:101B5000DF93EC01690182E14115510561057105D1
:101B600099F08B85833039F089E0440F551F661F4B
:101B7000771F8A95D1F79A01AB0168E1CE010E94E7
:101B80004D0D882319F084E08D832DC08EEF0E94C7
:101B90000F0D76018EEFD81AF70181917F010E9417
:101BA0000F0DEC14FD04C1F78FEF0E940F0D8FEFA6
:101BB0000E940F0D0E94160D8A878F71853071F477
:101BC000011116C0CE010E94040D81E0DF91CF917A
:101BD0000F91FF90EF90DF90CF90089581E18D837A
:101BE000CE010E94040DCE010E94040D80E0EECFD4
:101BF00088E592E00E94190D811102C085E1C4CFF1
:101C000020E030E0A9016DE0CE010E944D0D882357
:101C100011F084E1B9CF0E94160D8111FACFD2CF15
:101C20000F934091D8035091D9036091DA037091DA
:101C3000DB03411551056105710589F0082F2CED75
:101C400033E090E080E00E94A20D882349F01092DA
:101C5000D8031092D9031092DA031092DB0381E0CB
:101C60000F9108950F93CF93C82F8091D7038111BF
:101C700005C0C1E08C2FCF910F91089540910001D4
:101C80005091010160910201709103010C2F2CED24
:101C900033E090E080E00E94A20D811102C0C0E01C
:101CA000E9CFCC2331F381E00E94100E8823B9F3F1
:101CB0001092D703DFCFAF92BF92CF92DF92EF9215
:101CC000FF921F93CF93DF936B017C01142F8091C0
:101CD000000190910101A0910201B09103018C15C6
:101CE0009D05AE05BF0509F4ADC081E00E94320E2E
:101CF0008823E1F1809106008823A1F08091000003
:101D000090910100A0910200B0910300C816D9067D
:101D1000EA06FB0639F48091070090910800892BB0
:101D200009F44FC0C0920000D0920100E09202007E
:101D3000F092030080910B00A7019601833039F0E7
:101D400099E0220F331F441F551F9A95D1F761E187
:101D500090E080E00E944D0D882391F083E0809315
:101D6000050090E080E00E94040D80E0DF91CF91BB
:101D70001F91FF90EF90DF90CF90BF90AF900895AC
:101D80000E94AA06EB010E94160D80930A008F3F65
:101D900079F40E94AA066C1B7D0B6D32714098F39A
:101DA0008FE08093050090E080E00E94040DD9CF81
:101DB0008E3FC1F5109208001092070081E08093D9
:101DC0000600CCEDD3E08CEDA82E85E0B82E0E9465
:101DD000160D8993AC16BD06D1F78091070090913E
:101DE00008009E5F909308008093070020910900EF
:101DF000222319F081159240E8F080910600882393
:101E0000C9F080910700909108009C012F5F3F4F1F
:101E100030930800209307008230924028F40E94FB
:101E2000160DEFCF8DE0BDCF90E080E00E94040D55
:101E300010920600C0920001D0920101E0920201CE
:101E4000F09203014091D703412B4093D70381E0E7
:101E50008DCF4F925F926F927F928F929F92AF92AF
:101E6000BF92CF92DF92EF92FF920F931F93CF9387
:101E7000DF93EC01423051056105710590F480E07B
:101E8000DF91CF911F910F91FF90EF90DF90CF9056
:101E9000BF90AF909F908F907F906F905F904F908A
:101EA000089589859A85AB85BC850196A11DB11DD4
:101EB00084179507A607B70710F3CB88DC88ED8851
:101EC000FE888F89803109F042C0BB27A72F962F4B
:101ED000852F480159012A013B01C80ED91EEA1E6F
:101EE000FB1E8091000190910101A0910201B0912F
:101EF0000301C816D906EA06FB0699F58F898031D9
:101F0000C1F5B301A201552766277727440F551F56
:101F100044525C4FFA01918280828091D7038160A4
:101F20008093D7038A89823080F08D819E81AF8132
:101F3000B8858C0D9D1DAE1DBF1D8093D803909359
:101F4000D903A093DA03B093DB0381E099CFDB01DF
:101F5000CA01E7E0B695A79597958795EA95D1F7D9
:101F6000B8CF40E0C701B6010E945B0E8111C6CF19
:101F700086CFB301A2014F77552766277727440FF5
:101F8000551F440F551F44525C4FFA0180829182C5
:101F9000A282B382C2CF8F929F92AF92BF92CF9212
:101FA000DF92EF92FF920F931F93CF93DF93FC0189
:101FB00081859285A385B4850196A11DB11D8417E5
:101FC0009507A607B70770F480E0DF91CF911F91C6
:101FD0000F91FF90EF90DF90CF90BF90AF909F90C8
:101FE0008F90089583889488A588B68887898031E2
:101FF00089F5BB27A72F962F852FE9016A017B0161
:102000008F01BC01CD01680D791D8A1D9B1D80903B
:10201000000190900101A0900201B090030186168A
:102020009706A806B90601F5F8018789803111F5F0
:10203000DD24EE24FF24F601EE0FFF1FE452FC4FD7
:1020400080819181B0E0A0E088839983AA83BB83DB
:1020500081E0BBCFDB01CA01C7E0B695A795979594
:102060008795CA95D1F7C9CF40E00E945B0E8111D8
:10207000DBCFAACFE894C7F8DD24EE24FF24F601D5
:10208000EE0FFF1FEE0FFF1FE452FC4F8081918186
:10209000A281B381BF70D8CF8F929F92AF92BF922F
:1020A000CF92DF92EF92FF920F931F93CF93DF9324
:1020B000EC018D8181110EC080E0DF91CF911F91E5
:1020C0000F91FF90EF90DF90CF90BF90AF909F90D7
:1020D0008F9008950B891C892D893E890417150757
:1020E0002607370748F34A015B01823031F48A86BC
:1020F0009B86AC86BD8681E0E0CF81149104A1046B
:10210000B10449F41E821F82188619861A861B861E
:102110001C861D86F0CF0A851B852C853D85EB8DA1
:10212000FC8D858590E00996B901A80141505109BF
:1021300061097109082E04C07695679557954795F2
:102140000A94D2F775016401E1E0CE1AD108E108E2
:10215000F10804C0F694E794D794C7948A95D2F70F
:10216000C416D506E606F70620F0012B022B032B3A
:1021700011F58F89988DA98DBA8D8E839F83A8873D
:10218000B9878E010A5F1F4FC114D104E104F10425
:1021900009F4ADCF4E815F816885798598018B8D7B
:1021A0009C8D0E94CB0F91E0C91AD108E108F1087B
:1021B0008111EACF81CFC41AD50AE60AF70AE1CF26
:1021C0003F924F925F926F927F928F929F92AF92C7
:1021D000BF92CF92DF92EF92FF920F931F93CF9314
:1021E000DF93CDB7DEB72C970FB6F894DEBF0FBEE6
:1021F000CDBF5C01DC015B968D909C905C97169640
:102200004D905D906D907C9019974114510461043C
:10221000710409F468C0BFEF4B1A5B0A6B0A7B0AB2
:10222000312CF40181859285A385B4859C01AD0193
:102230002F5F3F4F4F4F5F4F29873A874B875C8710
:10224000730162011D821E821F821886F40181853E
:102250009285A385B4852D813E814F8158852817AD
:1022600039074A075B0708F056C089859A85AB8510
:10227000BC858C159D05AE05BF0550F482E0C82EC7
:10228000D12CE12CF12C92E0492E512C612C712C97
:102290009E012F5F3F4FB701A601C4010E94CB0FE3
:1022A0008823C9F189819A81AB81BC81892B8A2BD2
:1022B0008B2B09F1260137019FEF491A590A690A48
:1022C000790A2D813E814F8158852F5F3F4F4F4FB7
:1022D0005F4F2D833E834F8358873FEFC31AD30A46
:1022E000E30AF30AB3CFF401408051806280738027
:1022F0003324339496CFC414D504E604F70409F7C5
:102300000FEF1FEF2FEF3FE0B701A601C4010E94BE
:10231000290F811119C080E02C960FB6F894DEBF0A
:102320000FBECDBFDF91CF911F910F91FF90EF9026
:10233000DF90CF90BF90AF909F908F907F906F90E5
:102340005F904F903F900895D50116964D915D9105
:102350006D917C911997411551056105710539F011
:1023600097018601C4010E94290F8823A1F2D5019B
:102370001696CD92DD92ED92FC921997332051F092
:10238000D701C6010196A11DB11DF401808391837F
:10239000A283B383F5018789908DA18DB28D892B9E
:1023A0008A2B8B2B39F48481C78AD08EE18EF28EF2
:1023B00080688483F50184818062848381E0ACCF6E
:1023C0001F93CF93DF93EC01162F8C8187FF2AC0D8
:1023D0006E857F858889998941E00E945B0E8823FC
:1023E00061F1EA8980E2E89FF0011124E452FC4F98
:1023F000309719F18D81823040F48B899C89AD89A9
:10240000BE89848F958FA68FB78F8F89988D938F74
:10241000828F8F89988DA98DBA8DB58BA48B8C8175
:102420008F778C83111103C08C818F7E8C83812FD9
:10243000DF91CF911F910C94320E80E0DF91CF910C
:102440001F9108951F93CF93DF93EC018D8181300D
:1024500031F090E080E0DF91CF911F9108958C8161
:1024600081FFF7CF82FD1BC090E080E00E94370D16
:102470000E94160D182F90E080E00E94040D1F3F6F
:1024800041F78C8185FF1EC08D81882321F060E09B
:10249000CE010E94E0118C818F7D8C83DACF4B8935
:1024A0005C896D897E898A859B85AC85BD8584170D
:1024B0009507A607B707C1F2CE010E944C10811103
:1024C000D3CFC7CF4091D8035091D9036091DA039D
:1024D0007091DB03452B462B472B21F080E00E94B7
:1024E000100EB7CF80618C832A853B85317080E0E8
:1024F00092E0821B930BAFCF9F92AF92BF92CF928D
:10250000DF92EF92FF920F931F93CF93DF9300D050
:1025100000D01F92CDB7DEB78C016D83DC0115961C
:102520008C911597813009F0B9C014968C9181FF78
:10253000B5C082FD9FC0D8015B96ED91FC915C9780
:102540001A96AD90BD90CD90DC901D9794809A9492
:10255000B601A50189E076956795579547958A95C7
:10256000D1F79422B1E0BB22992009F49FC0D80191
:102570005B96ED91FC915C971696CD90DD90ED9079
:10258000FC901997B2E0CB1AD108E108F1088585D3
:1025900004C0CC0CDD1CEE1CFF1C8A95D2F74685CE
:1025A000578560897189C40ED51EE61EF71EC90CB9
:1025B000D11CE11CF11CA114B10409F00AC1F801FD
:1025C000428553856485758583899489A589B689F3
:1025D000481759076A077B0708F4FBC081E00E948F
:1025E000320E882309F45AC0C0920001D092010132
:1025F000E0920201F09203018091D7038160809301
:10260000D703F501E452FC4F8D818083F801828568
:102610009385A485B5850196A11DB11D82879387F9
:10262000A487B587438954896589768948175907EE
:102630006A077B0738F42481838B948BA58BB68B38
:1026400020682483D80114968C9183FD9FC081E07B
:1026500090E00F900F900F900F900F90DF91CF911F
:102660001F910F91FF90EF90DF90CF90BF90AF90B0
:102670009F900895F80143895489658976898285F8
:102680009385A485B585481759076A077B0709F420
:1026900052CFC8010E944C1081114DCF81E090E0D3
:1026A000D80113969C938E93129749C0D801169621
:1026B0004D915D916D917C911997A114B10409F030
:1026C00071C0411551056105710589F557968D91C8
:1026D0009D910D90BC91A02D0097A105B10509F029
:1026E0004FC0C8010E94E0108823C1F2D8015B9658
:1026F000ED91FC915C971696CD90DD90ED90FC905D
:102700001997B2E0CB1AD108E108F108858504C019
:10271000CC0CDD1CEE1CFF1C8A95D2F74685578534
:1027200060897189C40ED51EE61EF71E48CF9E0132
:102730002F5F3F4FCF010E94CB0F811103C090E06C
:1027400080E087CF89819A81AB81BC81F801238D9C
:10275000348DF901278948EF5FEF60E070E02031A8
:1027600021F048EF5FEF6FEF7FE084179507A60732
:10277000B70730F0C8010E94E0108111F8CE8ECF6B
:10278000F80186839783A087B187F1CEF801858110
:10279000882309F483CF61E0C8010E94E011811110
:1027A00056CF7CCF6A017B01B2E0CB1AD108E10899
:1027B000F108858504C0CC0CDD1CEE1CFF1C8A953D
:1027C000D2F74685578560897189C40ED51EE61EED
:1027D000F71E41E0C701B6010E945B0E811111CFC7
:1027E0005DCF0F931F93CF93DF93D82FC62F8A010E
:1027F00080E591E00E94340D0E94BB0CD260DEBDEA
:10280000F8018C2F882339F00DB407FEFDCF91918C
:102810009EBD8150F7CFC00FD12FD11D0DB407FE43
:10282000FDCF0E94BD0CCE01DF91CF911F910F9182
:1028300008950F931F93CF93DF9300D0CDB7DEB7EA
:10284000182F062F80E591E00E94340D0E94BB0CEA
:10285000126019830A8362E070E0CE0101960E9443
:102860005C0A0E94BD0C0F900F90DF91CF911F91D9
:102870000F910895CF93C82F80E591E00E94340D09
:102880000E94BB0C8C2F0E940F0D80E00E940F0D48
:10289000C82F0E94BD0C8C2FCF9108958F929F92CC
:1028A000AF92BF92CF92DF92EF92FF920F931F935E
:1028B000CF93DF93882E962E5A010E94AA066B01B1
:1028C0007C0128E8C20E23E1D21EE11CF11C10E0BD
:1028D00000E0D0E0C0E098280E94AA066C197D09AB
:1028E0008E099F0997FF1EC0692D80EF0E94191461
:1028F0000E94AA066C197D098E099F0997FF09C0DD
:1029000088EC0E943A1487FFF3CF60E888EC0E94BD
:10291000191488EF0E943A14C82FCF70C43081F088
:10292000CE30B9F08C2FDF91CF911F910F91FF9096
:10293000EF90DF90CF90BF90AF909F908F900895D1
:102940000F5F1F4FA114B10439F20A151B0521F6C0
:10295000E9CFDF5FD33009F0BFCFE4CFAF92BF92B2
:10296000CF92DF92EF92FF920F931F93CF93DF935B
:10297000EC01B62EA42E69010E94ED0A7C0186EDC1
:10298000E114F10409F447C0D701ED91FC911197CE
:1029900087ED309709F43FC013969C9180E098171B
:1029A00031F02081A21629F033968F5FF8CFF0E046
:1029B000E0E0D601ED93FC938BED309761F122813D
:1029C00026952695203108F02FE081E090E0A0E0E8
:1029D000B0E004C0880F991FAA1FBB1F2A95D2F729
:1029E0000197F801918380836B2D80EE0E9419146A
:1029F00088ED0E943A14D70114969C91682F697F44
:102A0000992329F0CA58DF4F68816260682B88EDEE
:102A10000E94191480E0DF91CF911F910F91FF90D8
:102A2000EF90DF90CF90BF90AF90089588EF0E9415
:102A30003A14807C8034B1F018F4882301F10895B1
:102A4000803819F0803CC9F0089588ED0E943A144E
:102A500081FD0DC069EC88ED0E94191482E080931D
:102A60000006089588ED0E943A1481FDF3CF6BECC7
:102A700088ED0E94191483E0F2CF81E0F0CF61ED80
:102A800088ED0E941914109200060895CF92DF92EB
:102A9000FF920F931F93CF93DF93F62E01E0C82F81
:102AA000D0E0CC0FDD1FC851D84F6E0188819981CD
:102AB000DC01ED91FC910280F381E02D2F2D40E0AF
:102AC00060E00995182F803E49F561E088EE0E948C
:102AD000191466E670E080E090E00E947405F6014B
:102AE00080819181DC01ED91FC910190F081E02DDC
:102AF0002F2D40E060E00995182F8D3041F58FEFC4
:102B0000800F833088F061E088EE0E94191466E639
:102B100070E080E090E00E94740510C08D3061F498
:102B20008FEF800F833050F464E670E080E090E037
:102B30000E9474050F5FBACF882389F2812FDF913D
:102B4000CF911F910F91FF90DF90CF900895882330
:102B5000A9F3D9CFFC0101900020E9F73197AF012B
:102B6000481B590BBC0181E096E00C9403032F92A3
:102B70003F924F925F926F927F928F929F92AF920D
:102B8000BF92CF92DF92EF92FF920F931F93CF935A
:102B9000DF937B013A016901F901A080B180FB015B
:102BA0003180F90111821082FB01828160E181FD97
:102BB00060E288EE0E9419142A2CA301F7016081BB
:102BC00080E00E944E14582EF6E08F1310C088EF5C
:102BD0000E943A14F70192819D7F84FF9260928354
:102BE00060E191FD60E288EE0E941914E6CF811148
:102BF00050C088EC0E943A1482FF5FC080E30E94BC
:102C00003A14482E8A151B0411F008F0422CF601E4
:102C100080819181E501C81BD90BD7FF02C0D0E0AC
:102C2000C0E0842C912C8C169D060CF4E40180E508
:102C300091E00E94340D0E94BB0C88E00E940F0DB1
:102C4000AE0170E060E0C8010E94E92F209721F0FA
:102C5000BE01C8010E945C0A0C0F1D1F0E94BD0C22
:102C600064E088EC0E941914F60180819181880E3D
:102C7000991E91828082431420F08A149B0408F4E8
:102C80009CCF88EF0E943A14F701928184FB91F95E
:102C90009283852DDF91CF911F910F91FF90EF903F
:102CA000DF90CF90BF90AF909F908F907F906F906C
:102CB0005F904F903F902F90089580EF582EE9CF6E
:102CC0002F923F924F925F926F927F928F929F923C
:102CD000AF92BF92CF92DF92EF92FF920F931F932A
:102CE000CF93DF93CDB7DEB765970FB6F894DEBF0D
:102CF0000FBECDBF3C01342E222E402EED8AEAA419
:102D0000FBA4188A1F861E861D868E01035F1F4F37
:102D10009E01215F3F4F40E00E94AE14582E81116A
:102D2000F5C039822A824B822D892C83DE82CD82A6
:102D3000B886AF82AE014F5F5F4F68E080E20E94CD
:102D4000F1134D855E8560E080E10E944E14811193
:102D50003AC1E114F10409F453C00F851889D80170
:102D600012968C91129737FE51C0826012968C9306
:102D7000650144244394C114D10409F429C19C86FB
:102D80008B864D855E856F85788987019E01255FDD
:102D90003F4FC3010E94B715582EB6E08B130EC0EB
:102DA00088EF0E943A14EF85F88985FB882780F91F
:102DB0008425928180FB91F99283DDCF8111A6C099
:102DC000ECA5FDA53097A1F06B857C850190F08185
:102DD000E02D0190F081E02DC5018C199D099A87A5
:102DE00089879E01275F3F4FA7018CA59DA5099567
:102DF0008B859C85C81AD90A8815990508F0BBCF20
:102E00004D855E8537FEDBC080EADAC081601296B0
:102E10008C93129711966C908FEF860D803408F08A
:102E2000D4C02D843E840E94AA069B01AC01285781
:102E30003C4E4F4F5F4F298B3A8B4B8B5C8BD801AD
:102E400012968C9160E880FF60E488EE0E9419146D
:102E5000512C712C8114910409F448C0530186143B
:102E6000970408F45401AD8AA7016A2D80E10E94FD
:102E7000F1136A2D88E30E941914F80160816062E1
:102E800080EF0E94191488EC0E943A1487FFFBCF50
:102E900060E888EC0E94191488EF0E943A148F7041
:102EA000582E412CD12CC12C552009F449C00E9428
:102EB000AA0629893A894B895C89621B730B840BAA
:102EC000950B97FF3DC036E0531609F464C04EE001
:102ED0005416D9F154E0551209C08FEFC81AD80A18
:102EE00021143104B1F12C143D0499F588EF0E94AE
:102EF0003A14D80112969C91129785FB90F912967C
:102F00009C934D855E85552009F459C0852D6596A5
:102F10000FB6F894DEBF0FBECDBFDF91CF911F91EA
:102F20000F91FF90EF90DF90CF90BF90AF909F9068
:102F30008F907F906F905F904F903F902F9008956B
:102F40008A189B08EA0CFB1C85CF439493E0491632
:102F500069F260E088E30E941914D7016C9180E166
:102F60000E9419146D8988E30E941914F801608188
:102F7000606280EF0E94191488EC0E943A1487FF67
:102F8000FBCF60E888EC0E94191488EF0E943A1485
:102F90008F70582E89CF88EF0E943A1485FB8827BE
:102FA00080F9A1E08A27F801928180FB90F9928351
:102FB00060E890FF60E488EE0E941914CACF80E8B0
:102FC00060E00E944E14582EA1CF8AED582E9ECF5D
:102FD0004D855E85552009F417CF98CF8F929F922B
:102FE000AF92BF92CF92DF92EF920F931F921F92F8
:102FF0003F932F934A015A01D12CC12CEE24E39424
:1030000000E026E040E80E9460160F900F900F90BD
:103010000F900F91EF90DF90CF90BF90AF909F9067
:103020008F9008958F929F92AF92BF92CF92DF922E
:10303000EF920F93CF931F921F921F921F92912C8A
:10304000812CB12CA12CD12CC12CE12C062F25E0F8
:1030500040E060E00E946016C82F6CE271E080E002
:1030600090E00E9474050F900F900F900F908C2F9E
:10307000CF910F91EF90DF90CF90BF90AF909F9046
:103080008F9008952F923F924F925F926F927F920E
:103090008F929F92AF92BF92CF92DF92EF92FF9268
:1030A0000F931F93CF93DF93CDB7DEB7C658D109E7
:1030B0000FB6F894DEBF0FBECDBFDC0116963C9173
:1030C000311166C2E22EC42ED62E3C01FC012480B2
:1030D0003580108ED101ED91FC910190F081E02DB1
:1030E00060E0C10109952C010097D9F486EDCA571B
:1030F000DF4F0FB6F894DEBF0FBECDBFDF91CF918B
:103100001F910F91FF90EF90DF90CF90BF90AF9005
:103110009F908F907F906F905F904F903F902F90F7
:103120000895FC010081118187ED01151105F9F267
:103130009301295F3F4FC158DF4F39832883CF5711
:10314000D04031832083E4829E0126593F4F48E0DE
:1031500050E060E0D30114968D919C910E94EE178F
:10316000FE01E458FF4FEF96FFAFEEAFEF97ED96FD
:103170008FAFED97811110C2AB96FFACAB97D20128
:103180000D931C93D101ED91FC910280F381E02D10
:103190002C2D40E06D2DC1010995F3018683882314
:1031A00009F4F8C1E2969FADE2979087682F848179
:1031B00095810E941218ED968FAFED97D101ED9198
:1031C000FC91882389F0D20114961C920480F58129
:1031D000E02DD30116966C91C1010995F301168279
:1031E000ED968FADED9783CFD30116966C91D201FA
:1031F00014961C920190F081E02DC1010995009771
:1032000009F474CFFC01E482FF20A1F04F2D43317B
:1032100008F042E150E09E0126593F4FD301169637
:103220006C91169714968D919C910E94EE17ED96D5
:103230008FAFED97ED96FFACED97F110C3C0EC9614
:10324000BFADEC97CC57DF4FB883C458D04010E0E7
:103250002E01E1E44E0E511C93012E5F3F4FCB57E0
:10326000DF4F39832883C558D040120130E1230E47
:10327000311CCC57DF4F8881C458D040181709F44F
:1032800099C0E1E2F1E0D2011196FC93EE93CB57A5
:10329000DF4F28813981C558D04013963C932E9337
:1032A000129714961C92149719961C9219971A96B5
:1032B0001C921A971D961C921D971F961C921E9287
:1032C0001E9790961C92909791961C929197929629
:1032D0001C92929798961C92989716963C922E92D2
:1032E000159718963C922E9217971C963C922E9208
:1032F0001B97D30114960D90BC91A02DCF57DF4F93
:10330000B983A883C158D040F301F681CD57DF4F70
:10331000F883C358D0401F921F9221E030E02C0F59
:103320003D1F3F932F9309E0802E912C89E0A82E1A
:10333000B12CD12CC12C92E0E92E012F26E040E8DF
:10334000CD57DF4F6881C358D040CF57DF4F8881BA
:103350009981C158D0400E9460160F900F900F9035
:103360000F90811120C0AB80BC805F924F9281E0B2
:1033700090E08C0F9D1F9F938F93B0E48B2E912C28
:1033800026E040E8CD57DF4F6881C358D040CF5783
:10339000DF4F88819981C158D0400E9460160F90FC
:1033A0000F900F900F90D30152968C91823011F0B4
:1033B0001F5F5FCFF3011289123069F081EDED9646
:1033C0008FAFED97D301ED91FC910480F581E02D55
:1033D000C301099505CF848195810681C158DF4FCE
:1033E000E881F981CF57D040EF2B09F4C7C0602F97
:1033F0000E94ED0AFC01892B09F4C3C00283C15865
:10340000DF4F28813981CF57D04031832083138308
:10341000ED96FFAEED9768EE73E080E090E00E94DD
:1034200074051F921F921F921F92912C812CB12C18
:10343000A12CD12CC12CE12CD3011F960C911F97EC
:1034400029E040E016966C91169714968D919C9108
:103450000E946016ED968FAFED970F900F900F9032
:103460000F908111AFCF68EE73E080E090E00E9492
:1034700074051F921F921F921F92F301018D2BE082
:1034800041E26681848195810E946016ED968FAF3E
:10349000ED970F900F900F900F90811193CF1F9287
:1034A0001F921F921F9200E02AE041E2D30116967C
:1034B0006C91169714968D919C910E946016ED96D2
:1034C0008FAFED97FE01EF5BFF4F87E291E09183B5
:1034D0008083FF93EF93CE0101969F938F9360E4D7
:1034E000862E912C70E8A72EB12CE2E2EE2E26E07B
:1034F00041E8F3016681848195810E94601680E233
:10350000ED968FAFED970FB6F894DEBF0FBECDBF2F
:10351000ED968FADED978823B9F190E0959587955D
:10352000ED968FAFED971F921F92EF963FADEF97FD
:103530003F93EE968FADEE978F9388248394912CD2
:10354000AA24A394B12CD12CC12C52E0E52E00E08A
:1035500029E041E2D30116966C91169714968D914D
:103560009C910E94601669E170E080E090E00E940A
:1035700074050F900F900F900F90CACFA8EDFA2E00
:1035800047CFF6EDFF2E44CF91E0F301978BAFCDFF
:1035900089EDADCD84EDABCDF2011183008312CF67
:1035A0008F929F92AF92BF92CF92DF92EF920F9342
:1035B000CF93DF931F92CDB7DEB7FC0192854734DE
:1035C00009F443C0433551F0493379F491FB88271E
:1035D00080F9292F2D7F80FF226006C0892F8170FE
:1035E000292F2E7F80FF2160228782858917A9F1EC
:1035F0006115710591F1FB0189831F921F92CE0124
:1036000001969F938F9388248394912CAA24A3944A
:10361000B12CD12CC12C22E0E22E00E029E041E2C5
:103620006681848195810E9460160F900F900F90A3
:103630000F900F90DF91CF910F91EF90DF90CF908F
:10364000BF90AF909F908F90089592FB882780F94C
:10365000292F2B7F80FF2460C7CF80E0EACFAF9275
:10366000BF92DF92EF92FF920F931F93CF93DF935E
:10367000CDB7DEB766970FB6F894DEBF0FBECDBFED
:10368000DC0157962C91211112C0D12C8D2D6696FC
:103690000FB6F894DEBF0FBECDBFDF91CF911F9163
:1036A0000F91FF90EF90DF90BF90AF9008957C0155
:1036B0000E94AA06F7010389148925893689601BAF
:1036C000710B820B930B97FDE0CF4285838590E0D1
:1036D0009E8B8D8BA480B58066811C8A1B8A1A8A7A
:1036E000198A8E010F5E1F4F9E012D5E3F4FC5014F
:1036F0000E94AE14D82E811123C049895A896B8942
:103700007C89005111099E012B5E3F4FC5010E942B
:10371000B715D82E811114C02D893E89233031056B
:1037200078F0D7011D968D919C91009749F0DC01AE
:10373000ED91FC910190F081E02D40E0B7010995F9
:103740000E94AA06F701208D620F711D811D911D37
:10375000638B748B858B968B99CFCF93DF93DC0132
:1037600014962D913C911597232B79F0FB01CD9167
:10377000DC9160817181CE010E940030009729F0B8
:103780008C1B9D0BDF91CF9108958FEF9FEFFACFA8
:103790002F923F924F925F926F927F928F929F9261
:1037A000AF92BF92CF92DF92EF92FF920F931F934F
:1037B000CF93DF9360901308709014086114710424
:1037C00009F410C1FC01848095808114910409F4EE
:1037D00009C18B017C01FB01C480D580C818D908C0
:1037E000C0910F08D0911008C114D104B9F4F701A9
:1037F00060817181CE010E940030EC01009709F4D4
:10380000F1C0F80160817181448155810E94CE2F01
:10381000F80184819581C80FD91FE9CFD7FC10C06A
:10382000FC01408051805301CE01B2010E94003062
:10383000009709F44CC0880D991DAC0CBD1CF5CF48
:103840005E01F70160817181CE010E9400303C0170
:10385000009739F14C018C1A9D0AA401BE01C501E3
:103860000E94CE2FA80CB91CF8016081718144819F
:103870005581C5010E94CE2FF80184819581A80E43
:10388000B91EF701C481D581C60DD71D80911308DB
:10389000909114088C0D9D1D90931408809313082B
:1038A000D0CFBE01C501DF91CF911F910F91FF9045
:1038B000EF90DF90CF90BF90AF909F908F907F90D0
:1038C0006F905F904F903F902F900C94F92F6A1457
:1038D0007B0409F487C080911108909112088A1521
:1038E0009B0588F4B5016F5F7F4FCE010E94112FB9
:1038F000009709F477C09093100880930F08B09256
:103900001208A0921108C0911308D09114082197B1
:10391000D7FD68C04E01F701448055804114510421
:1039200009F460C0A0901308B0901408A114B10469
:1039300009F458C0A414B50408F454C0CA15DB0532
:1039400020F04501F1E08F1A910860900F08709007
:103950001008C301CFEFDFEF1301280C391C281624
:10396000390688F0F701608171810E94003000976C
:1039700051F09C01261937098216930608F49E011E
:103980000196E901ECCFD7FD2DC04C0E5D1EC301A1
:10399000840D951DA50144195509BC018C0D9D1D73
:1039A0000E94D72F80911308909114088C0D9D1DB3
:1039B000909314088093130820910F0830911008F9
:1039C000820F931FFC01108280910F0890911008C4
:1039D000F80160817181448155818C0F9D1F0E9487
:1039E000CE2F95CFDF91CF911F910F91FF90EF9048
:1039F000DF90CF90BF90AF909F908F907F906F900F
:103A00005F904F903F902F9008950F931F93CF9307
:103A1000DF93EC0188819981009759F02A813B81DD
:103A20002617370730F081E0DF91CF911F910F917A
:103A300008958B016F5F7F4F0E94112F009759F0FF
:103A4000998388831B830A832C813D81232B59F71B
:103A5000FC011082E8CF80E0E7CFEF92FF920F9356
:103A60001F93CF93DF936115710541F480E0DF91DF
:103A7000CF911F910F91FF90EF900895411551053F
:103A8000B1F07B01EC010C811D81040F151FB80101
:103A90000E94051D882351F3288139818C819D81E5
:103AA000B701820F931F0E94F92F1D830C8381E0C1
:103AB000DECFFC0124813581232B39F421E0FB0189
:103AC0008081882349F020E007C0808191810E9495
:103AD000F02F21E0892BB9F7822F0895CF93DF9340
:103AE000EC018C819D81019779F4E881F98130970F
:103AF00021F41092D503E5EDF3E0608180E697E0D4
:103B0000DF91CF910C94180865EB71E0CE010E9413
:103B1000591D60EB8111F2CF6BEB71E0CE010E9479
:103B2000591D60E88111EACF60EC71E0CE010E947E
:103B3000591D61E88111E2CF66EC71E0CE010E946F
:103B4000591D62E88111DACF6AEC71E0CE010E9462
:103B5000591D63E88111D2CF6BE072E0CE010E9463
:103B6000591D811107C06EEC71E0CE010E94591DF4
:103B7000882311F06AEDC2CF62E172E0CE010E94AB
:103B8000591D811110C066ED71E0CE010E94591DD2
:103B9000811109C060EE71E0CE010E94591D882399
:103BA00021F068EDABCF69EDA9CF65EE71E0CE01F4
:103BB0000E94591D8111F5CF6FEE71E0CE010E9478
:103BC000591D882311F067ED99CF65EF71E0CE01A3
:103BD0000E94591D8111F7CF60E072E0CE010E9472
:103BE000591D882311F064ED89CF67E072E0CE01A2
:103BF0000E94591D63ED811181CF6EE072E0CE010C
:103C00000E94591D66ED811179CF67E172E0CE0106
:103C10000E94591D62ED811171CF6CE172E0CE01FD
:103C20000E94591D61EB811169CF60E272E0CE0103
:103C30000E94591D62EB811161CF6AE272E0CE01F0
:103C40000E94591D61ED811159CF61E372E0CE01EF
:103C50000E94591D63EB811151CF65E372E0CE01E3
:103C60000E94591D65ED811149CF69E372E0CE01D3
:103C70000E94591D61E0811141CF62E472E0CE01E2
:103C80000E94591D62EC811139CF65E472E0CE01CA
:103C90000E94591D63EC811131CF68E472E0CE01BE
:103CA0000E94591D64EC811129CF6BE472E0CE01B2
:103CB0000E94591D65EC811121CF6EE472E0CE01A6
:103CC0000E94591D66EC811119CF61E572E0CE01A9
:103CD0000E94591D67EC811111CF64E572E0CE019D
:103CE0000E94591D68EC811109CF67E572E0CE0191
:103CF0000E94591D69EC811101CF6AE572E0CE0185
:103D00000E94591D6AEC8111F9CE6DE572E0CE0179
:103D10000E94591D6BEC8111F1CE61E672E0CE017B
:103D20000E94591D6CEC8111E9CE65E672E0CE016E
:103D30000E94591D6DEC8111E1CE64E272E0CE016A
:103D40000E94591D882311F060E2D8CEDF91CF91F7
:103D500008950F931F93CF93DF938C01EB01FC0128
:103D6000808191810097E1F0688179816115710509
:103D7000A9F0428153812C813D814217530770F095
:103D80000E94F92F8C819D81F801958384831D8287
:103D90001C82DF91CF911F910F9108950E94882E70
:103DA00088819981F801918380838A819B819383A3
:103DB00082838C819D8195838483198218821B82E2
:103DC0001A82E5CFCF93DF93EC0188819981009728
:103DD00011F00E94882E198218821D821C821B827B
:103DE0001A82DF91CF910895CF93DF93EC0141E0E8
:103DF00050E06BEB72E00E942D1D811103C0CE01DB
:103E00000E94E21ECE01DF91CF910895CF93DF9300
:103E1000EC01FB0144815581608171810E942D1D5F
:103E2000811103C0CE010E94E21ECE01DF91CF912D
:103E30000895EF92FF920F931F93CF93DF93EC01BE
:103E40007B018A01BA010E94051D81110BC0CE01C0
:103E50000E94E21ECE01DF91CF911F910F91FF9042
:103E6000EF9008951D830C83B701888199810E948A
:103E7000F92FF0CFFB0101900020E9F73197AF0156
:103E8000461B570B0C94191F0F931F93CF93DF936F
:103E9000CDB7DEB729970FB6F894DEBF0FBECDBF02
:103EA0008C01862FF80111821082138212821582F2
:103EB00014824AE0BE016F5F7F4F90E00E94852D23
:103EC000BE016F5F7F4FC8010E943A1F29960FB64F
:103ED000F894DEBF0FBECDBFDF91CF911F910F9140
:103EE0000895FB01DC0111961C921E9213961C9200
:103EF0001E92129715961C921E921497861797077A
:103F000049F0608171816115710521F0448155810D
:103F10000C94191F0895FC011182108213821282E1
:103F200015821482FB0101900020E9F73197AF015F
:103F3000461B570B0C94191FAF92BF92CF92DF9282
:103F4000EF92FF920F931F93CF93DF936C015B016E
:103F50007A0189012417350720F48F2D7901042F68
:103F6000182F6BEB73E0C6010E948B1FD5011496CE
:103F7000CD91DC91EC16FD06E0F40C171D0708F45A
:103F8000E801D501ED91FC911197EC0FFD1F108117
:103F900010826D917C916E0D7F1DC60161157105BA
:103FA000A1F00E943A1FF50180819181C80FD91FAD
:103FB0001883C601DF91CF911F910F91FF90EF9071
:103FC000DF90CF90BF90AF9008950E94E21EEBCF9C
:103FD000FC0180819181009711F00C94882E089546
:103FE000DF92EF92FF920F931F93CF93DF93CDB7A2
:103FF000DEB7A1970FB6F894DEBF0FBECDBF7C0130
:10400000D62E142F842F0E94AA01082F81134FC08F
:10401000482F6D2DC7010E94D108182F8F7DC1F048
:10402000612F80E697E00E94D807612F81E096E03B
:104030000E94F003A1960FB6F894DEBF0FBECDBF6D
:10404000DF91CF911F910F91FF90EF90DF90089536
:10405000602F80E697E00E94D80789E692E00E94F0
:10406000AA15402F50E070E060E019A2CE018196C1
:104070008A019B010F7011272227332724E07695B0
:104080006795579547952A95D1F70A3074F4005DE6
:10409000FC010293CF01411551056105710541F7FE
:1040A000EF2B41F20E94AA15C5CF095CF1CF682F12
:1040B00080E697E00E94D80718521D3308F0BEC072
:1040C000E12FF0E0EA59FF4D0C94E62DBE20C1200F
:1040D000C420C720BB201E211E211E211E211E21FF
:1040E00015211E211E211E211E211E211E21A3205D
:1040F000CA20CD20D020D320D620D920DC20DF201C
:10410000E220E520E820EB20B820B5201E21EE209B
:10411000F120F420F720FA20FD20002103210621C0
:104120000921B2201E211E211E211E21BE201E217A
:104130001E211E211E211E211E211E211E211E2187
:104140001E211E210C216CE672E0CE0101960E9418
:104150008B1FCE0101960E943003CE0101960E9472
:10416000E81F68CF68E772E0F0CF63E872E0EDCF58
:1041700061E972E0EACF66E973E0E7CF60EA72E0F6
:10418000E4CF6AEA72E0E1CF61EB72E0DECF6DEB83
:1041900072E0DBCF64EC72E0D8CF6AEC72E0D5CF8E
:1041A00060ED72E0D2CF66ED72E0CFCF6CED72E0E1
:1041B000CCCF62EE72E0C9CF68EE72E0C6CF6EEE91
:1041C00072E0C3CF64EF72E0C0CF6AEF72E0BDCFA0
:1041D00061E073E0BACF68E073E0B7CF6FE073E0FF
:1041E000B4CF68E173E0B1CF60E273E0AECF6BE2D1
:1041F00073E0ABCF64E373E0A8CF6BE373E0A5CFCC
:1042000068E473E0A2CF67E573E09FCF65E673E0F3
:104210009CCF63E773E099CF8091D2036FE773E09F
:10422000811193CF6BEB72E090CF8091D20361E864
:1042300073E081118ACF63E873E087CF6BEB73E0A3
:1042400084CFFF920F931F93CF93DF93CDB7DEB749
:104250002C970FB6F894DEBF0FBECDBF142F062FDC
:10426000042700FF26C060E880E697E040FF1AC1FF
:104270000E941808612F6170CE0107960E94441FAA
:1042800065E873E0CE0101960E948B1FBE01695F55
:104290007F4FCE0101960E94061F0E94F41E0E94CD
:1042A0003003CE0101960E94E81FCE0107960E94BE
:1042B000E81F01FF10C0812F8270F82E61E880E6B0
:1042C00097E011FFF2C00E94180881E0F11001C0D0
:1042D00080E08093D20302FF27C062E880E697E087
:1042E00012FFE6C00E94180812FB662760F9CE0193
:1042F00007960E94441F6CE873E0CE0101960E946D
:104300008B1FBE01695F7F4FCE0101960E94061F81
:104310000E94F41E0E943003CE0101960E94E81F05
:10432000CE0107960E94E81F03FF27C063E880E6DE
:1043300097E013FFC0C00E94180813FB662760F9BE
:10434000CE0107960E94441F62E973E0CE010196F8
:104350000E948B1FBE01695F7F4FCE0101960E94B4
:10436000061F0E94F41E0E943003CE0101960E9497
:10437000E81FCE0107960E94E81F04FF27C064E8EB
:1043800080E697E014FF9AC00E94180814FB662785
:1043900060F9CE0107960E94441F65E873E0CE01E4
:1043A00001960E948B1FBE01695F7F4FCE0101966F
:1043B0000E94061F0E94F41E0E943003CE01019647
:1043C0000E94E81FCE0107960E94E81F05FF0CC05F
:1043D00065E880E697E015FF74C00E94180811FB9D
:1043E000882780F98093D20306FF27C066E880E61D
:1043F00097E016FF69C00E94180816FB662760F94F
:10440000CE0107960E94441F6CE873E0CE0101962E
:104410000E948B1FBE01695F7F4FCE0101960E94F3
:10442000061F0E94F41E0E943003CE0101960E94D6
:10443000E81FCE0107960E94E81F07FF27C067E824
:1044400080E697E017FF43C00E94180817FB662715
:1044500060F9CE0107960E94441F62E973E0CE0125
:1044600001960E948B1FBE01695F7F4FCE010196AE
:104470000E94061F0E94F41E0E943003CE01019686
:104480000E94E81FCE0107960E94E81F2C960FB6E7
:10449000F894DEBF0FBECDBFDF91CF911F910F917A
:1044A000FF9008950E94D807E5CE0E94D8070DCF4F
:1044B0000E94D80719CF0E94D8073FCF0E94D80783
:1044C00065CF0E94D8078BCF0E94D80796CF0E9455
:1044D000D807BCCFCF92DF92EF92FF920F931F933A
:1044E000CF93DF93CDB7DEB72C970FB6F894DEBF2E
:1044F0000FBECDBF7C0166E973E0CE0101960E943C
:104500008B1FBE016F5F7F4FC7010E94AD1B8C01E7
:10451000CE0101960E94E81F0F3F100771F4B7010A
:10452000CE0101960E94711FCE0101960E946E1D60
:10453000CE0101960E94E81F66C0980150E040E05D
:10454000B701CE0101960E949C1F68E973E0CE017D
:1045500001960E94591DD82ECE0101960E94E81F97
:10456000DD20E1F00F5F1F4FD70114968D919C91D4
:1045700015970817190708F046C0ED91FC91309780
:1045800051F41092D503E5EDF3E0608180E697E009
:104590000E948008E7CFE00FF11FF7CF980150E0AD
:1045A00040E0B701CE0101960E949C1F66EA73E0CD
:1045B000CE0101960E94591DD82ECE0101960E946F
:1045C000E81FDD2009F44AC0F70124813581A801E4
:1045D0004F5F5F4FB701CE0101960E949C1F8981FA
:1045E0009A81C12CD12C7601009719F00E94492D97
:1045F0006B01CE0101960E94E81FB601DD0C880B0D
:10460000990B0E947405109266071092670710922A
:1046100068071092690710926A0710926B07109250
:10462000640784E697E00E9441066091D30370918D
:10463000D403072E000C880B990B0E9474052C964E
:104640000FB6F894DEBF0FBECDBFDF91CF911F91A3
:104650000F91FF90EF90DF90CF900895980150E078
:1046600040E0B701CE0101960E949C1F6FE973E004
:10467000CE0101960E94591DD82ECE0101960E94AE
:10468000E81FDD20D9F0D70114962D913C91A801A7
:104690004F5F5F4FB701CE0101960E949C1F898139
:1046A0009A81009739F00E94492D7093D40360934A
:1046B000D3033ECF60E070E0CB01F7CF980150E02C
:1046C00040E0B701CE0101960E949C1F6CEA73E0A6
:1046D000CE0101960E94591DD82ECE0101960E944E
:1046E000E81FD11090CF980150E040E0B701CE0113
:1046F00001960E949C1F60EB73E0CE0101960E9420
:10470000591DD82ECE0101960E94E81FDD2079F1B7
:10471000F70124813581A8014F5F5F4FB701CE01BA
:1047200001960E949C1F89819A810097E1F00E9466
:10473000492D8B01CE0101960E94E81F011511053C
:1047400009F461CF69E078E0CE0101960E94711F03
:10475000CE0101960E946A22CE0101960E94E81FB6
:1047600001501109EBCF60E070E0CB01E2CFB7015F
:10477000CE0101960E94711F8D819E81892B09F4C3
:10478000D7CE66E973E0CE0107960E948B1FBE016B
:10479000695F7F4FCE0101960E94AD1B8C01CE0157
:1047A00007960E94E81F0F3F1007E1F4BE016F5FFC
:1047B0007F4FCE0107960E94711FCE0107960E947F
:1047C0006E1DCE0107960E94E81F6BEB73E0CE01D1
:1047D00001960E943A1F65E070E080E090E00E9440
:1047E0007405CACF980150E040E0BE016F5F7F4F73
:1047F000CE0107960E949C1FCE0107960E946E1D57
:10480000CE0107960E94E81F2D813E81A8014F5FCF
:104810005F4FBE016F5F7F4FCE0107960E949C1FC6
:10482000BE01695F7F4FCE0101960E94A91ECE0195
:1048300007960E94E81FCFCF1F920F920FB60F92DC
:1048400011248F939F938091E1009091E100937FD9
:104850009093E10083FF0FC01092E90091E09093E4
:10486000EB001092EC0092E39093ED001092FF05A4
:1048700098E09093F00082FF22C093E09093E900CB
:104880009091F200992319F09AE39093E8009091A7
:10489000F605992341F09091F60591509093F60515
:1048A000911101C05D9A9091FE05992341F090917C
:1048B000FE0591509093FE05911101C0289A84FF46
:1048C00018C08091E2008E7E81608093E20080912A
:1048D000E1008F7E8093E1008091F7058E7E8061FC
:1048E0008093F7059F918F910F900FBE0F901F90AF
:1048F000189580FFF7CF8091E2008E7E80618093D3
:10490000E2008091E1008E7E8093E1008091F705C6
:104910008E7E8160E5CF1F920F920FB60F92112409
:10492000CF92DF92EF92FF920F931F932F933F93BB
:104930004F935F936F937F938F939F93AF93BF93A7
:10494000EF93FF93CF93DF93CDB7DEB76C97DEBFC6
:10495000CDBF1092E9008091E80083FF25C068E098
:10496000CE0145960E94F60282EF8093E8008D8981
:1049700087FF39C09091E80090FFFCCF982F907688
:1049800009F034C19E894F89588D2F89F88C911177
:1049900031C0803861F58091F8058093F100109264
:1049A000F1008EEF8093E8006C960FB6F894DEBFAE
:1049B0000FBECDBFDF91CF91FF91EF91BF91AF912E
:1049C0009F918F917F916F915F914F913F912F9127
:1049D0001F910F91FF90EF90DF90CF900F900FBE3F
:1049E0000F901F9018959EEF9093E800C7CF1092FC
:1049F000F100D5CF913059F48111D3CF4130510519
:104A000081F68091F8058D7F8093F805CACF9330A9
:104A100049F48111C6CF4130510519F68091F8054E
:104A20008260F2CF953041F48091E80080FFFCCFA6
:104A300020682093E300B5CF963009F0A9C00B8D14
:104A40001C8D22E01092E9001092F4051092F305FB
:104A5000F2122EC01092F2051092F1050E944D0341
:104A60001F8299E09983FA8291E09E8390EA988769
:104A70009AEF99872091F3053091F405275F3F4F16
:104A80003C832B838D831092E9001092F4051092E1
:104A9000F3051093F2050093F10549E050E0BE01E3
:104AA0006F5F7F4F80E00E94BF020E944D0379CF6D
:104AB0001093F2050093F1050E943903DC01129670
:104AC0000D911C910115110509F451C1D801ED9109
:104AD000FC910480F581E02DBE016B5E7F4FC80123
:104AE0000995009709F03EC1F80100851185EACFCC
:104AF000F3E0FF120EC08F89882309F440C0823092
:104B000061F440E860E186ED91E00E945F27811149
:104B100048CF81E28093EB0047CF813029F440E811
:104B20006BE08AEC91E0F1CF833099F70E94390372
:104B3000DC011296ED90FC908E010F5F1F4F680113
:104B4000E114F10479F0D701ED91FC910680F78131
:104B5000E02DB801C7010995080F111DF701E08488
:104B6000F184EECFD8011C92F60101900020E9F704
:104B70003197BF016C197D0940E0C601C6CF64EBD7
:104B800071E0FB01449150E080E80E94BF0209CF30
:104B9000973009F4BECF983021F481E08093F10082
:104BA00000CF993009F0FDCE837009F0B2CFE1E17A
:104BB000F1E081E031E096E32191222371F08093CE
:104BC000E9003093EB00DF0111972C912093EC006A
:104BD0009093ED008F5F873079F78EE78093EA003E
:104BE0001092EA008F898093FF05DBCE8B8D9C8D20
:104BF0001092E9001092F4051092F3059093F205DB
:104C00008093F105898D811192C08E899D89913A99
:104C100049F4813209F07DCF47E050E068E071E06F
:104C200080E0B3CF913209F074CF833269F48F8979
:104C3000988DB0E0A0E08093040190930501A093CB
:104C40000601B0930701ADCE803269F48091E8008F
:104C500082FFFCCF67E088E091E00E94F6028BEFD4
:104C60008093E8009ECE823209F09BCE8F8980939C
:104C70000F01EEEFFFE7859194918B3F9C4D51F131
:104C8000E0E0F8E08091080190910901A0910A010B
:104C9000B0910B01803B9440A105B105F1F48091E6
:104CA0000F0180FD1AC0EE3F8AE0F80789F587E71B
:104CB00097E791838083809160008093F50588E178
:104CC0009BE00FB6F894A895809360000FBE909378
:104CD000600067CEEEEFFAE0D5CF80819181873713
:104CE000974709F05ECEA895809160008861809317
:104CF00060008091F50580936000EE3F2AE0F207A6
:104D000089F08091FE0A9091FF0A9183808349CEB9
:104D1000808191818737980751F29093FF0A8093A1
:104D2000FE0AC5CF1092FF0A1092FE0A3ACE0E94E8
:104D30003903DC0112960D911C910115110509F43E
:104D4000E8CED801ED91FC910190F081E02DBE01FB
:104D50006B5E7F4FC8010995811123CEF801008554
:104D60001185EBCF181619060CF41BCED2CEF1E04C
:104D7000FF12BECE68EB71E004CF1F920F920FB608
:104D80000F9211242F933F934F935F936F937F93D1
:104D90008F939F93AF93BF93EF93FF9381E096E040
:104DA0000E94CF03FF91EF91BF91AF919F918F919F
:104DB0007F916F915F914F913F912F910F900FBE17
:104DC0000F901F9018951F920F920FB60F921124FB
:104DD0002F938F939F93EF93FF93E0911106F091A0
:104DE00012068081E0911706F091180682FD1BC023
:104DF000908180911A068F5F8F7320911B06821716
:104E000041F0E0911A06F0E0EF5FF94F958F809343
:104E10001A06FF91EF919F918F912F910F900FBEE6
:104E20000F901F9018958081F4CF1F920F920FB6AC
:104E30000F9211242F933F938F939F93AF93BF9320
:104E40008091DD059091DE05A091DF05B091E00530
:104E50003091DC0523E0230F2D3758F50196A11D75
:104E6000B11D2093DC058093DD059093DE05A093B2
:104E7000DF05B093E0058091E1059091E205A091F6
:104E8000E305B091E4050196A11DB11D8093E105F4
:104E90009093E205A093E305B093E405BF91AF9131
:104EA0009F918F913F912F910F900FBE0F901F9068
:104EB000189526E8230F0296A11DB11DD2CFEF92BF
:104EC000FF920F931F93CF93DF93F82E192FE62EA7
:104ED000042F81E0860F880F0E94910283E00E94D8
:104EE0009102CF2DD12FEC0EFD2EF11CCE15DF053A
:104EF000B9F007FF13C0FE0184910E949102182FA0
:104F000080E00E949102812321968111EFCFDF91F1
:104F1000CF911F910F91FF90EF9008958881EDCF71
:104F200081E0F5CFCF93109204061092030688EE2D
:104F300093E0A0E0B0E08093050690930606A0936E
:104F40000706B09308062DE231E030930206209365
:104F500001062DEC30E030930E0620930D062CEC6C
:104F600030E03093100620930F0628EC30E03093A9
:104F700012062093110629EC30E03093140620939A
:104F800013062AEC30E030931606209315062EEC1B
:104F900030E0309318062093170610921A061092EC
:104FA0001B0610921C0610921D061092A10610926C
:104FB000A0068093A2069093A306A093A406B093A4
:104FC000A5068FE391E090939F0680939E068FEF56
:104FD0009FEF9093AB068093AA0680E58093EE0640
:104FE0001092EF061092F5061092F6061092F9064E
:104FF0001092FB0682E090E0A0E0B0E08093FC0617
:105000009093FD06A093FE06B093FF06109213073F
:1050100010921D0710921C0781E591E090931B07E9
:1050200080931A0710921F0710926307109262076D
:1050300089E691E09093610780936007809158071B
:10504000811113C0109253071092520781E492E02D
:1050500090935507809354078FE290E09093570701
:105060008093560781E08093580780914A07811109
:105070002AC0C1E0C0933D07C0933E0783E497E098
:105080009093400780933F07109242071092410788
:105090008DE591E090933A07809339071092450788
:1050A000109244071092470710924607C093480792
:1050B000C093490781EC809343070E9439030E9403
:1050C0006401C0934A07E0914407F0914507309787
:1050D00009F0A5C082E597E09093450780934407C7
:1050E00080914607909147072091560730915707C6
:1050F000820F931F90934707809346076BEB73E0F3
:105100008FE098E00E948B1F6BEB73E089E098E0E2
:105110000E948B1F89E991E09093930780939207F7
:1051200010929A0781E080939B0710929C0784E974
:1051300097E090939907809398071092940788E0DE
:10514000809395078CE38093960710929707E2E986
:10515000F7E02DED37E081E044E957E015868687DA
:1051600017865487438735962E173F07B9F7109255
:10517000080891E190936C0722E937E030937D07AE
:1051800020937C0725E731E0309379072093780757
:1051900023E931E030937B0720937A0710928B0745
:1051A00010928C0710928D0710928E0710928F0725
:1051B0001092910780938A071092890710927F07B7
:1051C00088E0809380078CE38093810710928207A8
:1051D0001092830784E080938407109285071092D1
:1051E000860710928707E8EEF7E090E080E02191D3
:1051F0003191232BE9F4880F991FFC01E851F84FF6
:1052000088E797E0918380831092770783EA91E0A3
:1052100090936E0780936D07CF910895FC01808174
:1052200091810097D9F782E597E09183808358CFE9
:10523000019680319105D9F6E7CFCF93DF93CDB7B3
:10524000DEB769970FB6F894DEBF0FBECDBF789476
:1052500084B5826084BD84B5816084BD85B582607B
:1052600085BD85B5816085BD80916E00816080932C
:105270006E00109281008091810082608093810095
:1052800080918100816080938100809180008160A5
:105290008093800080919100826080939100809142
:1052A0009100816080939100809190008160809353
:1052B00090008091C10084608093C1008091C10002
:1052C00082608093C1008091C10081608093C100A1
:1052D0008091C30081608093C3008091C000826090
:1052E0008093C0008091C20081608093C200809151
:1052F0007A00846080937A0080917A008260809343
:105300007A0080917A00816080937A0080917A009F
:10531000806880937A001092FF051092F805109231
:10532000F7058091D70081608093D70080EA809351
:10533000D80089B5806189BD89B5826089BD09B40D
:1053400000FEFDCF61E070E080E090E00E94740517
:105350008091D8008F7C80618093D8008091E0009C
:10536000807F8093E0008091E1008E7E8093E10059
:105370008DE08093E200559A209AE0911106F09119
:10538000120682E08083E0910D06F0910E061082F5
:10539000E0910F06F091100680E1808310921906CB
:1053A000E0911506F091160686E08083E0911306E1
:1053B000F0911406808180618083E0911306F09162
:1053C0001406808188608083E0911306F0911406B2
:1053D000808180688083E0911306F09114068081BB
:1053E0008F7D808360ED77E080E090E00E9474051F
:1053F0008DE00E94470260E08DE00E94DE04269A64
:105400000E94BD0C1FB7F8948091F905811124C04A
:10541000E4E1F2E08491E3E3F2E09491E82FF0E03C
:10542000EE0FFF1FEB50FE4FA591B491EC91E923D5
:1054300021F461E081E10E94DE0481E10E944702E3
:105440008CB580618CBD8CB580648CBD8FE00E9472
:10545000470280E10E9447028091F9058F5F8093A7
:10546000F9051FBF209A289A259868E188E80E94CC
:10547000191460E288E70E94191460E088E70E942E
:10548000191410E000E088E60E943A140F5F1F4FE5
:1054900080FF4FC061EC88ED0E94191460E680ED3A
:1054A0000E94191464E088EE0E94191488EE0E948C
:1054B0003A1482FFFBCF0E94161560E288EC0E942E
:1054C000191461E080E80E94191468EC70E080E033
:1054D00090E00E9474050E94AA068DE697E09093E2
:1054E0008607809385076E0193E1C90ED11C85E381
:1054F00092E0282E880F330883B1182F107285FD93
:105500000CC088EC0E943A1485FF03C00E94161557
:1055100010E2612F88EC0E941914809100068130FE
:10552000A9F0C0F0823009F470C08330E1F010E0DF
:1055300031C00F3F100709F0A6CF8CEB93E00E941B
:10554000AA158FEC93E00E94AA15BFCFA3E1A09308
:105550006C07EDCF80916C07807F803141F381E152
:1055600080936C07E4CF11E080916C07807F8031DD
:1055700089F40E94AA0668537F4F8F4F9F4F609314
:10558000FA057093FB058093FC059093FD05B0E24E
:10559000B0936C0798EEE92E97E0F92E5701F501CC
:1055A000819191915F01009739F0DC01ED91FC91BF
:1055B0000680F781E02D0995E8E0F8E0EA15FB05A3
:1055C00071F780916C07803409F474C000F5803263
:1055D00009F45AC0803309F467C08131B1F51092E3
:1055E0000808D7018D919D917D01009739F0DC016C
:1055F000ED91FC910480F581E02D0995AE14BF0476
:1056000081F782E180936C0720C010E0ADCF813537
:1056100009F45FC0803809F46FC08035B1F488ECBC
:105620000E943A1486FF11C081E580936C070E94A6
:10563000AA066C5E7F4F8F4F9F4F6093FA05709361
:10564000FB058093FC059093FD0581E096E00E94A8
:10565000AF03892B09F44DC16BEB73E0CE010196CA
:105660000E948B1F0E94B60697FD38C182159305D4
:1056700009F434C18B8B1C8A41E050E0B601CE01A5
:1056800001960E942D1DEECF0E94AA060091FA05F8
:105690001091FB052091FC053091FD05601B710BFD
:1056A000820B930B97FDD1CF61E088EE0E94191415
:1056B00080E4A8CF88EE0E943A1480FDC6CF88ED22
:1056C0000E943A14682F686088ED0E94191480E5E2
:1056D00099CF0E94AA068090FA059090FB05A090B1
:1056E000FC05B090FD05681979098A099B0997FDA9
:1056F000ACCF80E880936C071B8A88E08C8B8CE3AE
:105700008D8BA0909807B0909907D0929907C0927E
:10571000980710939C079E012F5F3F4F42E150E096
:1057200060E082E997E00E94EE17082FB092990797
:10573000A0929807811151C049845A848B849C841B
:105740006D80BE81B98F88EEA82E87E0B82E712CAF
:10575000F50180819181009709F041C07394F2E0D6
:10576000AF0EB11C80E17812F3CFF70180819181F7
:10577000009709F076C00F5FF2E0EF0EF11C0031E8
:10578000A1F78091980790919907892B09F459C046
:1057900010939C0720E040E060E082E997E00E94DF
:1057A000980AF82E882309F44CC0682F82E997E004
:1057B0000E94ED0A009709F444C0FC0114836F2D88
:1057C00082E997E00E941218082F882309F484C008
:1057D0006F2D82E997E00E94760A802F2FC0DC01AE
:1057E000ED91FC910084F185E02D09958111B6CFF2
:1057F000F50180819181DC01ED91FC910088F189B6
:10580000E02D698D0995882309F4A8CFF5018081E1
:105810009181DC01ED91FC910484F585E02DA401DA
:10582000B2010995882379F0612F872D0E944615D2
:10583000813D09F493CF882309F44EC0823D09F4D9
:1058400004CF80EADFCEF50180819181DC01ED910A
:10585000FC910684F785E02D662D09958111E4CF32
:105860007DCFDC01ED91FC910084F185E02D09955F
:10587000811181CFF70180819181DC01ED91FC9153
:105880000088F189E02D698D0995811109C0612F8A
:10589000802F0E944615982F977F913D61F66BCF20
:1058A000F70180819181DC01ED91FC910484F58503
:1058B000E02DA401B201099581115DCFF70180812E
:1058C0009181DC01ED91FC910684F785E02D662D38
:1058D00009958823E1F24FCF80E994CEBE016F5F36
:1058E0007F4F8FE098E00E94A91ECE0101960E9492
:1058F000E81F8091130890911408892B09F4B4C013
:105900006AEB73E0C6010E948B1F67EB73E0CE0168
:1059100001960E948B1FB601CE0101960E94C81B02
:10592000CE0101960E94E81FC6010E94E81F6AEBA3
:1059300073E0C6010E948B1F69EB73E0CE010196F4
:105940000E948B1FB601CE0101960E94C81BCE019A
:1059500001960E94E81FC6010E94E81F809113086B
:1059600090911408892B09F474C06AEB73E0CE019E
:1059700001960E948B1F8091130890911408892B27
:1059800071F0E0900F08F090100869817A81C701EA
:105990000E9400308C010E191F09892B11F40FEFA2
:1059A0001FEFCE0101960E94E81F0F3F1007A9F4D8
:1059B0006FE078E0CE0101960E94711FCE01019642
:1059C0000E946A22CE0101960E94E81F6BEB73E0F1
:1059D0008FE098E00E943A1FC1CF980150E040E06C
:1059E0006FE078E0CE0101960E949C1FCE010196E7
:1059F0000E946A22CE0101960E94E81F980150E0A1
:105A000040E06FE078E0CE0101960E949C1FBE014D
:105A10006F5F7F4F89E098E00E94A91ECE0101963A
:105A20000E94E81F2091130830911408A8014F5FCD
:105A30005F4F6FE078E0CE0101960E949C1FBE018F
:105A40006F5F7F4F8FE098E00E94A91ECE01019604
:105A500083CF6BEB73E08FE098E00E943A1F69E917
:105A600081E096E00E94F00380E090E0892B09F449
:105A700043CD0E94BB03882309F43ECD0E94000061
:105A80003BCD89E098E00E94E81F8FE098E00C94FD
:105A9000E81F1F93FC0199278827BC01E894119106
:105AA0001032E9F3193010F01E30C8F31B3251F0F8
:105AB0001D3249F4689406C00E94702D610F711D5B
:105AC000811D911D119110531A30B0F33EF4909541
:105AD0008095709561957F4F8F4F9F4F1F910895CF
